{
    "contractName": "GitHubDapplet",
    "abi": [
        {
            "inputs": [
                {
                    "internalType": "string",
                    "name": "commentId",
                    "type": "string"
                }
            ],
            "name": "addLike",
            "outputs": [],
            "stateMutability": "nonpayable",
            "type": "function"
        },
        {
            "inputs": [
                {
                    "internalType": "string",
                    "name": "commentId",
                    "type": "string"
                }
            ],
            "name": "getAccountsByCommentId",
            "outputs": [
                {
                    "internalType": "address[]",
                    "name": "",
                    "type": "address[]"
                }
            ],
            "stateMutability": "view",
            "type": "function"
        },
        {
            "inputs": [],
            "name": "getAll",
            "outputs": [
                {
                    "components": [
                        {
                            "internalType": "string",
                            "name": "commentId",
                            "type": "string"
                        },
                        {
                            "internalType": "address[]",
                            "name": "accounts",
                            "type": "address[]"
                        }
                    ],
                    "internalType": "struct GitHubDapplet.CommentInfo[]",
                    "name": "result",
                    "type": "tuple[]"
                }
            ],
            "stateMutability": "view",
            "type": "function"
        },
        {
            "inputs": [
                {
                    "internalType": "string",
                    "name": "commentId",
                    "type": "string"
                }
            ],
            "name": "removeLike",
            "outputs": [],
            "stateMutability": "nonpayable",
            "type": "function"
        }
    ],
    "bytecode": "608060405234801561001057600080fd5b50610d41806100206000396000f3fe608060405234801561001057600080fd5b506004361061004c5760003560e01c8063220669c41461005157806353ed5143146100665780635c88e93e14610084578063e9a58f1b14610097575b600080fd5b61006461005f3660046109d4565b6100b7565b005b61006e61043f565b60405161007b9190610af9565b60405180910390f35b6100646100923660046109d4565b610632565b6100aa6100a53660046109d4565b6107a7565b60405161007b9190610b9b565b6000600180836040516100ca9190610bb5565b908152604051908190036020019020546100e49190610be7565b67ffffffffffffffff8111156100fc576100fc6109be565b604051908082528060200260200182016040528015610125578160200160208202803683370190505b5090506000805b60018460405161013c9190610bb5565b9081526040519081900360200190205481101561023a57336001600160a01b031660018560405161016d9190610bb5565b9081526020016040518091039020828154811061018c5761018c610bfe565b6000918252602090912001546001600160a01b031614610228576001846040516101b69190610bb5565b908152602001604051809103902081815481106101d5576101d5610bfe565b6000918252602090912001546001600160a01b031683836101f581610c14565b94508151811061020757610207610bfe565b60200260200101906001600160a01b031690816001600160a01b0316815250505b8061023281610c14565b91505061012c565b508160018460405161024c9190610bb5565b9081526020016040518091039020908051906020019061026d929190610821565b5060018360405161027e9190610bb5565b9081526040519081900360200190205460000361043a57600080546102a590600190610be7565b67ffffffffffffffff8111156102bd576102bd6109be565b6040519080825280602002602001820160405280156102f057816020015b60608152602001906001900390816102db5790505b5090506000805b6000548110156104225785805190602001206000828154811061031c5761031c610bfe565b906000526020600020016040516103339190610cff565b604051809103902014610410576000818154811061035357610353610bfe565b90600052602060002001805461036890610c2d565b80601f016020809104026020016040519081016040528092919081815260200182805461039490610c2d565b80156103e15780601f106103b6576101008083540402835291602001916103e1565b820191906000526020600020905b8154815290600101906020018083116103c457829003601f168201915b50505050508383806103f290610c14565b94508151811061040457610404610bfe565b60200260200101819052505b8061041a81610c14565b9150506102f7565b508151610436906000906020850190610882565b5050505b505050565b60005460609067ffffffffffffffff81111561045d5761045d6109be565b6040519080825280602002602001820160405280156104a257816020015b604080518082019091526060808252602082015281526020019060019003908161047b5790505b50905060005b60005481101561062e5760006040518060400160405280600084815481106104d2576104d2610bfe565b9060005260206000200180546104e790610c2d565b80601f016020809104026020016040519081016040528092919081815260200182805461051390610c2d565b80156105605780601f1061053557610100808354040283529160200191610560565b820191906000526020600020905b81548152906001019060200180831161054357829003601f168201915b5050505050815260200160016000858154811061057f5761057f610bfe565b906000526020600020016040516105969190610cff565b90815260408051918290036020908101832080548083028501830190935282845291908301828280156105f257602002820191906000526020600020905b81546001600160a01b031681526001909101906020018083116105d4575b505050505081525090508083838151811061060f5761060f610bfe565b602002602001018190525050808061062690610c14565b9150506104a8565b5090565b6000805b6001836040516106469190610bb5565b908152604051908190036020019020548110156106c557336001600160a01b03166001846040516106779190610bb5565b9081526020016040518091039020828154811061069657610696610bfe565b6000918252602090912001546001600160a01b0316036106b557600191505b6106be81610c14565b9050610636565b5080156107245760405162461bcd60e51b815260206004820152602360248201527f596f752061726520616c7265616479206c696b6564207468697320636f6d6d656044820152626e742160e81b606482015260840160405180910390fd5b6001826040516107349190610bb5565b908152604051908190036020908101909120805460018181018355600092835283832090910180546001600160a01b0319163317905581549081018255908052835161043a927f290decd9548b62a8d60345a988386fc84ba6bc95484008f6362f93160ef3e563909201918501906108db565b60606001826040516107b99190610bb5565b908152604080519182900360209081018320805480830285018301909352828452919083018282801561081557602002820191906000526020600020905b81546001600160a01b031681526001909101906020018083116107f7575b50505050509050919050565b828054828255906000526020600020908101928215610876579160200282015b8281111561087657825182546001600160a01b0319166001600160a01b03909116178255602090920191600190910190610841565b5061062e92915061094f565b8280548282559060005260206000209081019282156108cf579160200282015b828111156108cf57825180516108bf9184916020909101906108db565b50916020019190600101906108a2565b5061062e929150610964565b8280546108e790610c2d565b90600052602060002090601f0160209004810192826109095760008555610876565b82601f1061092257805160ff1916838001178555610876565b82800160010185558215610876579182015b82811115610876578251825591602001919060010190610934565b5b8082111561062e5760008155600101610950565b8082111561062e5760006109788282610981565b50600101610964565b50805461098d90610c2d565b6000825580601f1061099d575050565b601f0160209004906000526020600020908101906109bb919061094f565b50565b634e487b7160e01b600052604160045260246000fd5b6000602082840312156109e657600080fd5b813567ffffffffffffffff808211156109fe57600080fd5b818401915084601f830112610a1257600080fd5b813581811115610a2457610a246109be565b604051601f8201601f19908116603f01168101908382118183101715610a4c57610a4c6109be565b81604052828152876020848701011115610a6557600080fd5b826020860160208301376000928101602001929092525095945050505050565b60005b83811015610aa0578181015183820152602001610a88565b83811115610aaf576000848401525b50505050565b600081518084526020808501945080840160005b83811015610aee5781516001600160a01b031687529582019590820190600101610ac9565b509495945050505050565b60006020808301818452808551808352604092508286019150828160051b87010184880160005b83811015610b8d57603f1989840301855281518051878552805180898701526060610b50828289018d8601610a85565b601f19601f830116870192508a840151935080878403018b880152610b7781840185610ab5565b988b019896505050928801925050600101610b20565b509098975050505050505050565b602081526000610bae6020830184610ab5565b9392505050565b60008251610bc7818460208701610a85565b9190910192915050565b634e487b7160e01b600052601160045260246000fd5b600082821015610bf957610bf9610bd1565b500390565b634e487b7160e01b600052603260045260246000fd5b600060018201610c2657610c26610bd1565b5060010190565b600181811c90821680610c4157607f821691505b602082108103610c6157634e487b7160e01b600052602260045260246000fd5b50919050565b8054600090600181811c9080831680610c8157607f831692505b60208084108203610ca257634e487b7160e01b600052602260045260246000fd5b818015610cb65760018114610cc757610cf3565b60ff19861689528489019650610cf3565b876000528160002060005b86811015610ceb5781548b820152908501908301610cd2565b505084890196505b50505050505092915050565b6000610bae8284610c6756fea264697066735822122049e1039ddf1ab21e3b178f23e3377ee561649500e386c8a46d4c51af93ad230f64736f6c634300080e0033",
    "sourcePath": "/home/nikita/dapplets/github-dapplet-workshop/ethereum-contract/contracts/Greeter.sol",
    "compiler": {
        "name": "solc",
        "version": "0.8.14+commit.80d49f37"
    },
    "functionHashes": {
        "addLike(string)": "5c88e93e",
        "getAccountsByCommentId(string)": "e9a58f1b",
        "getAll()": "53ed5143",
        "removeLike(string)": "220669c4"
    },
    "gasEstimates": {
        "creation": {
            "codeDepositCost": "678600",
            "executionCost": "715",
            "totalCost": "679315"
        },
        "external": {
            "addLike(string)": "infinite",
            "getAccountsByCommentId(string)": "infinite",
            "getAll()": "infinite",
            "removeLike(string)": "infinite"
        }
    }
}